:100000000C942A000C9434000C9434000C943400AA
:100010000C9434000C9434000C9434000C94340090
:100020000C9434000C9434000C9434000C94340080
:100030000C9434000C9434000C9434000C94340070
:100040000C9434000C9434000C9434000C94340060
:100050000C94340011241FBECFE5D8E0DEBFCDBF25
:100060000E944E000C947A000C940000CF93DF9312
:100070001F92CDB7DEB709C0198203C089818F5F97
:10008000898389818F3FD1F7C9019C0121503109B2
:10009000892B91F70F90DF91CF91089581B3806FF5
:1000A00081BB82B38F7E82BB82B38F7782BB82B3E8
:1000B000806282BB88EE93E00E94360082B38F7D1F
:1000C00082BB82B3806482BB88EE93E00E943600DC
:1000D00082B38F7B82BB82B3806882BB88EE93E061
:1000E0000E94360082B3806182BB84EF91E00E945F
:0800F0003600D7CFF894FFCFD2
:00000001FF
