:100000000C942A000C9436000C9450000C946A0056
:100010000C9434000C9434000C9434000C94340090
:100020000C9434000C9434000C9434000C94340080
:100030000C9434000C9434000C9434000C94340070
:100040000C9434000C9434000C9434000C94340060
:100050000C94340011241FBECFE5D8E0DEBFCDBF25
:100060000E9492000C949A000C9400001F920F9230
:100070000FB60F9211242F938F939F93959A2FE38E
:100080008DE093E0215080409040E1F700C00000F7
:100090009F918F912F910F900FBE0F901F901895E9
:1000A0001F920F920FB60F9211242F938F939F934D
:1000B000969A2FE38DE093E0215080409040E1F745
:1000C00000C000009F918F912F910F900FBE0F9055
:1000D0001F9018951F920F920FB60F9211242F9315
:1000E0008F939F93979A2FE38DE093E02150804068
:1000F0009040E1F700C000009F918F912F910F90E9
:100100000FBE0F901F90189581B3806E81BB08952C
:1001100085B78D6085BF8BB7806E8BBF8FB78068CA
:100120008FBF08950E9484000E94880082B38F715F
:0801300082BBFCCFF894FFCF65
:00000001FF
